:020000040000FA
:020000000528D1
:040002000034003492
:02000800F328DB
:06000A00831603178901B3
:1000100070308600831603138113FF30950083121E
:100020000313703086008316031780308800831610
:1000300003138801F0308500A8308B00831603136A
:1000400070309600F001F7010130F3000030F2004B
:10005000F1007718D820771C472029288312031332
:10006000FC01FD01FE01FF016430F002031841288C
:100070000A30F002031843280130F0020318452823
:100080000800FE0A3428FD0A3828FC0A3C282E20E5
:1000900083120313013085007C08722088006320DE
:1000A000023085007D0872208800632004308500BE
:1000B0007E08722088006320083085007F08722047
:1000C000880063200800831203130530A000053068
:1000D000A1004130A200A20B6B28A10B6928A00B44
:1000E0006728080082073F3406345B344F34663497
:1000F0006D347D3407347F346734F401F501F60143
:1001000083120313FE30860000008628F40A061EC0
:100110009728F40A861E9728F40A061F9728902825
:100120000C3074020319C8280314860D8628061E95
:100130009728861E9728061F97287408F6000A300D
:1001400076020319C2280C3076020319C528F50A75
:10015000013075020319B628023075020319BA2856
:10016000033075020319BE28F501C8287408CA2097
:10017000F300C8287408CA20F200C8287408CA20EE
:10018000F100C8280130F706C8280230F706C82851
:100190000B100800820700000134023403340434D9
:1001A00005340634073408340934FF340034FE348F
:1001B00083120313013085007108722088006320C8
:1001C00002308500720872208800632004308500A8
:1001D0007308722088006320083085000030722088
:1001E000880063200800FA00030EFB000B187D2036
:0A01F0007B0E8300FA0EFA0E0900E0
:02400E00F12F90
:00000001FF
