:020000040000FA
:020000000528D1
:040002000034003492
:02000800792954
:06000A00831603178901B3
:1000100070308600831603138113FF30950083121E
:100020000313703086008316031780308800831610
:1000300003138801F0308500831603130710831221
:1000400003130710831603130915831603139F0167
:10005000831203135D309F00F801F9018316031327
:1000600057308100831203133D3081008316031340
:1000700024309800193099008312031390309800AF
:10008000831603178711A8308B0083160313703073
:100090009600F7010130F3000030F200F10077180C
:1000A0004021771C9520F71857206B204F287308A4
:1000B0007E02031C6928031D672872087D02031C49
:1000C0006928031D672871087C02031C6928F71042
:1000D0000800F714080083120313F7180714F71C1D
:1000E00007100800831203137008A300FC01FD0130
:1000F000FE01FF016430A30203188F286430A307B8
:1001000081280A30A302031891280A30A3078828FF
:100110000130A302031893280130A3070800FE0A48
:100120007A28FD0A8128FC0A88287220831203138A
:10013000013085007C08C0208800B1200230850095
:100140007D08C0208800B120043085007E08C020D2
:100150008800B120083085007F08C0208800B120C9
:100160000800831203130530A0000530A1004130C0
:10017000A200A20BB928A10BB728A00BB528080034
:1001800082073F3406345B344F3466346D347D343B
:1001900007347F3467347E08303EDB207D08303EF4
:1001A000DB20831203137C08303EDB200A30DB2087
:1001B0000D30DB20080083160313981CDB28831204
:1001C000031399000800F401F601033075020319C6
:1001D000F50183120313FE3086000000EF28F40AB5
:1001E000061E0029F40A861E0029F40A061F0029AB
:1001F000F9280C307402031930290314860DEF28F6
:10020000061E0029861E0029061F00297408F60014
:100210000A30760203192A290C30760203192D2997
:10022000F50A0130750203191E29023075020319FF
:100230002229033075020319262930297408322136
:10024000F300302974083221F20030297408322179
:10025000F10030290130F70630290230F706302945
:100260000B10080082070000013402340334043408
:1002700005340634073408340934FF340034FE34BE
:1002800083120313013085007108C0208800B1205B
:10029000023085007208C0208800B120043085003B
:1002A0007308C0208800B120083085000030C020CD
:1002B0008800B1200800831203139F149F185E2941
:1002C0001E08F0007220CB20FF30F8000530F90046
:1002D0000800831203133D308100F80B7029722946
:1002E0000B110800F90B76295B217029FF30F8000B
:1002F0007029FA00030EFB000B18E3200B1969218B
:0A0300007B0E8300FA0EFA0E0900CE
:02400E00F12F90
:00000001FF
