:020000040000FA
:020000000528D1
:040002000034003492
:020008000029CD
:06000A00831603178901B3
:1000100070308600831603138113703095008312AD
:100020000313703086008316031780308800831610
:1000300003138801F0308500A8308B00831603136A
:1000400070309600F001F7010830F300F200F10083
:100050007718E520771C5020282883120313700896
:10006000A300FC01FD01FE01FF016430A30203189F
:100070004A286430A3073C280A30A30203184C28FE
:100080000A30A30743280130A30203184E28013089
:10009000A3070800FE0A3528FD0A3C28FC0A43286D
:1000A0002D2083120313013085007C087B208800FB
:1000B0006C20023085007D087B2088006C20043095
:1000C00085007E087B2088006C20083085007F0832
:1000D0007B2088006C200800831203130530A000E9
:1000E0000530A1004130A200A20B7428A10B722898
:1000F000A00B7028080082073F3406345B344F346D
:1001000066346D347D3407347F346734F401F6018E
:10011000033075020319F50183120313FE308600C4
:1001200000009228F40A061EA328F40A861EA328BB
:10013000F40A061FA3289C280C3074020319D32844
:100140000314860D9228061EA328861EA328061FC8
:10015000A3287408F6000A3076020319CD280C3063
:1001600076020319D028F50A013075020319C12857
:10017000023075020319C528033075020319C92816
:10018000D3287408D720F300D3287408D720F200AE
:10019000D3287408D720F100D3280130F706D328DC
:1001A0000230F706D3280F3086000B1008008207B4
:1001B00000000134023403340434053406340734B7
:1001C00008340934FF340034FE3483120313013041
:1001D000850071087B2088006C2002308500720841
:1001E0007B2088006C200430850073087B20880009
:1001F0006C200830850000307B2088006C200800CF
:10020000FA00030EFB000B1886207B0E8300FA0E0B
:04021000FA0E0900D9
:02400E00F12F90
:00000001FF
