:020000040000FA
:020000000528D1
:040002000034003492
:020008002B29A2
:06000A00831603178901B3
:1000100070308600831603138113FF30950083121E
:100020000313703086008316031780308800831610
:1000300003138801F0308500831603130710831221
:1000400003130710A8308B0083160313703096003B
:100050003230F00077150030F3000730F200053041
:10006000F10077181021771C7B2038204C20312894
:1000700073087E02031C4828031D4A2872087D026B
:10008000031C4828031D4A2871087C02031C4828C9
:10009000F7140800F7100800831203137719532090
:1000A000771D07100800F7180714F71C0710080041
:1000B000831203137008A300FC01FD01FE01FF0180
:1000C0006430A302031875286430A30767280A3038
:1000D000A302031877280A30A3076E280130A30271
:1000E000031879280130A3070800FE0A6028FD0ADA
:1000F0006728FC0A6E2858208312031301308500FC
:100100007C08A62088009720023085007D08A62064
:1001100088009720043085007E08A620880097205C
:10012000083085007F08A6208800972008008312E9
:1001300003130530A0000530A1004130A200A20B3E
:100140009F28A10B9D28A00B9B28080082073F3405
:1001500006345B344F3466346D347D3407347F3479
:100160006734F401F601033075020319F5018312B7
:100170000313FE3086000000BD28F40A061ECE28B8
:10018000F40A861ECE28F40A061FCE28C7280C3093
:1001900074020319FE280314860DBD28061ECE28FE
:1001A000861ECE28061FCE287408F6000A30760276
:1001B0000319F8280C3076020319FB28F50A0130E0
:1001C00075020319EC28023075020319F028033078
:1001D00075020319F428FE2874080221F300FE2892
:1001E00074080221F200FE2874080221F100FE28A2
:1001F0000130F706FE280430F706FE280F3086008F
:100200000B10080082070000013402340334043468
:1002100005340634073408340934FF340034FE341E
:1002200083120313013085007108A62088009720EF
:10023000023085007208A6208800972004308500CF
:100240007308A62088009720083085000030A6207B
:10025000880097200800FA00030EFB000B18B1205D
:0A0260007B0E8300FA0EFA0E09006F
:02400E00F12F90
:00000001FF
