:020000040000FA
:020000000528D1
:040002000034003492
:02000800F428DA
:06000A00831603178901B3
:1000100070308600831603138113FF30950083121E
:100020000313703086008316031780308800831610
:1000300003138801F0308500A8308B00831603136A
:1000400070309600F001F7010830F300F200F10083
:100050007718D920771C48202828831203137008AA
:10006000A300FC01FD01FE01FF016430A30203189F
:1000700042280A30A302031844280130A3020318BF
:1000800046280800FE0A3528FD0A3928FC0A3D28C2
:100090002D2083120313013085007C087320880013
:1000A0006420023085007D087320880064200430BD
:1000B00085007E08732088006420083085007F0852
:1000C0007320880064200800831203130530A00009
:1000D0000530A1004130A200A20B6C28A10B6A28B8
:1000E000A00B6828080082073F3406345B344F3485
:1000F00066346D347D3407347F346734F401F501A0
:10010000F60183120313FE30860000008728F40AEC
:10011000061E9828F40A861E9828F40A061F9828B6
:1001200091280C3074020319C9280314860D8728FE
:10013000061E9828861E9828061F98287408F60020
:100140000A3076020319C3280C3076020319C62838
:10015000F50A013075020319B72802307502031938
:10016000BB28033075020319BF28F501C92874089C
:10017000CB20F300C9287408CB20F200C9287408EA
:10018000CB20F100C9280130F706C9280230F70654
:10019000C9280B1008008207000001340234033420
:1001A000043405340634073408340934FF34003489
:1001B000FE34831203130130850071087320880018
:1001C00064200230850072087320880064200430A7
:1001D0008500730873208800642008308500003093
:1001E0007320880064200800FA00030EFB000B183F
:0C01F0007E207B0E8300FA0EFA0E090040
:02400E00F12F90
:00000001FF
