:020000040000FA
:020000000528D1
:040002000034003492
:06000A008316031780308D
:100010008800831603138801F03085005430F00007
:100020002F201028831203130030FF007008A30054
:10003000FC01FD01FE01FF016430A3020318292821
:100040000A30A30203182B280130A30203182D281D
:100050000800FE0A1C28FD0A2028FC0A2428122079
:1000600083120313013085007C085A2088004B203E
:10007000023085007D085A2088004B20043085001E
:100080007E085A2088004B20083085007F085A20BF
:1000900088004B200800831203130530A0000530B0
:1000A000A1004130A200A20B5328A10B5128A00BA4
:1000B0004F28080082073F3406345B344F346634DF
:0A00C0006D347D3407347F3467345B
:02400E00F12F90
:00000001FF
