:020000040000FA
:020000000528D1
:040002000034003492
:020008007E294F
:06000A00831603178901B3
:1000100070308600831603138113703095008312AD
:100020000313703086008316031780308800831610
:1000300003138801F0308500831603130710831221
:1000400003130710831603130915831603139F0167
:10005000831203135D309F00F801F9018316031327
:1000600057308100831203133D3081008316031340
:1000700024309800193099008312031390309800AF
:10008000831603178711A8308B0083160313703073
:100090009600F7010130F3000030F200F10077180C
:1000A0003521771C772056206B204F287E0873025D
:1000B000031C6728031D69287D087202031C67283A
:1000C000031D69287C087102031C67286928F7143E
:1000D0000800F71008008312031377197220771DA8
:1000E00007100800F7180714F71C071008009320E2
:1000F00083120313013085007C08C5208800B620D8
:10010000023085007D08C5208800B62004308500B7
:100110007E08C5208800B620083085007F08C520ED
:100120008800B6200800831203137008A300FC01A6
:10013000FD01FE01FF016430A3020318B028643002
:10014000A307A2280A30A3020318B2280A30A30783
:10015000A9280130A3020318B4280130A30708001E
:10016000FE0A9B28FD0AA228FC0AA9288312031371
:100170000530A0000530A1004130A200A20BBE282E
:10018000A10BBC28A00BBA28080082073F34063414
:100190005B344F3466346D347D3407347F346734D8
:1001A0007E08303EE0207D08303EE02083120313BD
:1001B0007C08303EE0200A30E0200D30E0200800CE
:1001C00083160313981CE028831203139900080078
:1001D000F401F601033075020319F50183120313CC
:1001E000FE3086000000F428F40A061E0529F40AF1
:1001F000861E0529F40A061F0529FE280C30740204
:10020000031950290314860DF428061E0529861E9D
:100210000529061F05297408F6000A30760203191D
:100220002F290C30760203193229F50A01307502A4
:100230000319232902307502031927290330750297
:1002400003192B29502974085421F30050297408EC
:100250005421F200502974085421F1005029013032
:10026000F70650290430F706502983120313013092
:1002700085007108C5208800B6200230850072080C
:10028000C5208800B620043085007308C52088008A
:10029000B620083085000030C5208800B620080050
:1002A000703086000B100800820700000134023411
:1002B0000334043405340634073408340934FF3475
:1002C0000034FE34831203133D308100F80B7C2987
:1002D0006929F90B6D2970217C290A30F8007C29E5
:1002E000831203139F149F1873291E08F0000A300D
:1002F000F8000230F90008000B110800FA00030EA4
:10030000FB000B1962210B18E8207B0E8300FA0E0C
:040310007A0E090058
:02400E00F12F90
:00000001FF
